:020000040800F2
:100000006006002099010008650200085D020008F2
:1000100061020008550200086503000800000000A6
:100020000000000000000000000000006D02000859
:10003000590200080000000069020008710200086F
:10004000B3010008B3010008B3010008B3010008C0
:10005000B3010008B3010008B3010008B3010008B0
:10006000B3010008B3010008B3010008B3010008A0
:10007000B3010008B3010008B3010008B301000890
:10008000B3010008B3010008B3010008B301000880
:10009000B3010008B3010008B3010008B301000870
:1000A000B3010008B3010008B3010008B301000860
:1000B000B3010008B3010008B3010008B301000850
:1000C000B3010008B3010008B3010008B301000840
:1000D000B3010008B3010008B3010008B301000830
:1000E000B3010008B3010008B3010008B301000820
:1000F000B3010008B3010008B3010008B301000810
:10010000B3010008B3010008B3010008B3010008FF
:10011000B3010008B301000800F002F800F02CF869
:100120000AA090E8000C82448344AAF10107DA4552
:1001300001D100F021F8AFF2090EBAE80F0013F078
:10014000010F18BFFB1A43F00103184720020000FB
:10015000300200000023002400250026103A28BFAA
:1001600078C1FBD8520728BF30C148BF0B60704729
:100170001FB51FBD10B510BD00F031F81146FFF7D7
:10018000F7FF00F0F1F800F04FF803B4FFF7F2FFCB
:1001900003BC00F057F800000948804709480047B1
:1001A000FEE7FEE7FEE7FEE7FEE7FEE7FEE7FEE727
:1001B000FEE7FEE704480549054A064B7047000084
:1001C0007502000819010008600000206006002088
:1001D000600200206002002070477047704775463B
:1001E00000F02CF8AE4605006946534620F00700A3
:1001F000854618B020B5FFF7DDFFBDE820404FF081
:1002000000064FF000074FF000084FF0000BAC461F
:10021000ACE8C009ACE8C009ACE8C009ACE8C0096A
:1002200021F007018D46704710B50446AFF30080FA
:100230002046BDE81040FFF7A8BF00000048704707
:100240000000002001491820ABBEFEE72600020096
:1002500070470000FEE70000FEE70000FEE7000038
:10026000FEE70000FEE70000FEE70000FEE70000FA
:10027000FEE7000082B041F20400C4F2020050F830
:10028000041C002241F0010140F8041C0168CFF277
:10029000FF021140016050F8041C4FF6FF72CFF6C8
:1002A000F662114040F8041C50F8041C21F480212F
:1002B00040F8041C016821F4FE0101604FF41F01A5
:1002C000416000210191009150F8041C41F48031FB
:1002D00040F8041C50F8041C01F40031009101990D
:1002E00001310191009919B90199B1F5805FF1D1FE
:1002F00050F8041C890354BF00210121009100998A
:10030000012926D10168016001680160016841F49A
:1003100080610160016821F47C110160016841F491
:100320002411016050F8041C41F0807140F8041C55
:1003300050F8041C8901FBD5016821F0030101601C
:10034000016841F002010160016801F00C01082917
:10035000FAD14EF60850CEF200004FF00061016075
:1003600002B07047FEE70000FEE700007C030008D3
:0C0370000000002060060000540100089E
:0400000508000119D5
:00000001FF
